:1070000055C000008AC0000088C0000086C0000093
:1070100084C0000082C0000080C000007EC000006C
:107020007CC000007AC00000F0C5000076C00000FF
:1070300074C0000072C0000070C000006EC000008C
:107040006CC000006AC0000068C0000066C000009C
:1070500065C0000062C0000060C000005EC00000AB
:107060005CC000005AC0000058C0000056C00000BC
:1070700054C0000052C0000050C000004EC00000CC
:107080004CC000004AC0000048C0000046C00000DC
:1070900044C0000042C0000040C000003EC00000EC
:1070A0003CC000003AC0000038C0000011241FBEE0
:1070B000CFEFDAE0DEBFCDBF04B603FE19C080918A
:1070C00085019091860182549C4D91F484B7877F0D
:1070D00084BF88E10FB6F89480936000109260003E
:1070E0000FBE1092860110928501E0E0F0E0099554
:1070F00011E0A0E0B1E0ECE2FFE702C005900D92E4
:10710000A836B107D9F711E0A8E6B1E001C01D9299
:10711000A538B107E1F7A9D307C772CF1F920F9225
:107120000FB60F9211248F9380E489B98F910F903D
:107130000FBE0F901F901895482F1CC02091F30090
:107140008091F200322F20E090E0822B932B892B4C
:1071500071F48091E8008B7F8093E80003C08EB3C8
:10716000882351F08091E80082FFF9CF02C080911E
:10717000F1004150442311F7089520917701309197
:1071800076018091750190917401809369019093CB
:107190006A01C90180936B0190936C0108951F935C
:1071A00080916F018823D9F080917201843049F475
:1071B00080917301882339F4809174018F3F19F411
:1071C0000EC0853061F08AE08093000183E08093F7
:1071D0006E018091EB0080628093EB00DCC08091B7
:1071E0007201843009F458C0853030F4813059F090
:1071F000833009F0D0C01DC0853009F4A6C08630A8
:1072000009F0C9C0BCC010917301123008F0C3C0AE
:10721000B4DF112361F48091690190916A0123E048
:10722000FC0120935700E89507B600FCFDCF85E0F0
:1072300008C080917301882311F0823029F49DDF0A
:1072400089E080930001A7C0813009F0A4C020E04C
:1072500030E040E050E0F90184918F3F81F0CA01B5
:10726000AA27BB2780936D0130936A01209369019F
:107270008AE08093000185E080936E018CC02F5FCF
:107280003F4F4F4F5F4F2030F0E73F07F0E04F0791
:10729000F0E05F0701F77FC080917301833081F5D3
:1072A00081E0809368018091780190917901892B28
:1072B00071F080917401813009F06DC08091770187
:1072C00090917601909371018093700164C08091D8
:1072D0007401882391F482E49CED9093860180935D
:1072E00085012CE088E190E00FB6F894A895809392
:1072F00060000FBE209360004EC0109201014BC091
:10730000882309F048C0809174018F3F09F043C081
:10731000E0E0F0E093E085E090935700E89507B651
:1073200000FCFDCF80935700E89507B600FCFDCF29
:10733000E058FF4F20E7E030F20771F781E18093DA
:107340005700E89510926F0126C0E091740180917A
:107350007301882329F4F0E0EA5FFE4F80810CC0BE
:107360008130C9F4AE2FB0E0E03618F4AE52BF4F12
:1073700002C0AB55BF4F8C9180937A010CC08091B5
:107380007301833041F480917401882321F480914A
:10739000750180936D011F9108952F923F924F9236
:1073A0005F926F927F928F929F92AF92BF92CF9295
:1073B000DF92EF92FF920F931F93DF93CF9300D052
:1073C00000D000D0CDB7DEB780917D018F778132BC
:1073D00009F032C280E489B90091830110918401DF
:1073E000109379010093780180917E01833009F434
:1073F000DDC1843030F4813071F0823009F01CC27C
:1074000030C1853009F4F8C1853008F4EDC186300B
:1074100009F012C208C28091E800877F8093E800DB
:1074200080916801882319F0BADE10926801011575
:10743000110529F432C08EB3882309F4FDC180916F
:10744000E80082FFF8CF8091F10080937201A801DB
:10745000415050405093790140937801E3E7F1E0C7
:107460000CC08091F10081934150504081E0E83799
:10747000F80719F4518340830FC02091F3008091E5
:10748000F200322F20E090E0822B932B892B49F7DA
:10749000509379014093780182DE8091000185301C
:1074A00009F0DBC08091780190917901892B21F45A
:1074B00082E080930001D1C08AE13EDEE090690164
:1074C000F0906A018E2D8F7137DE60906B017090A5
:1074D0006C010894611C711C83010E191F0908942A
:1074E0006108710880917301882309F0B1C04801D7
:1074F00096948794C701A0916D01B0E0AC01BD01E5
:10750000E2E0EE2EF12C012D112DE40EF51E061FEA
:10751000171F49835A836B837C8333244424439409
:1075200075E0572E63E0262E5BC02091F30080911A
:10753000F200322F20E090E0822B932B892B71F404
:107540008091E8008B7F8093E80004C08EB388238D
:1075500009F472C18091E80082FFF8CF0894810895
:1075600091088091F1008D838091F1008E83E981F3
:10757000FA81AD80BE80050140925700E895112444
:10758000339430E4B32E3B1419F081149104A1F428
:10759000FA0150925700E89507B600FCFDCF811420
:1075A000910451F0F70120925700E89507B600FCCE
:1075B000FDCFB801A701332422E0A22EB12CC12CAB
:1075C000D12CEA0CFB1C0C1D1D1D89819A81AB81FD
:1075D000BC810296A11DB11D89839A83AB83BC83B4
:1075E0008114910409F0A1CF70926A01609269013F
:1075F00081E180935700E8952EC02091F30080919F
:10760000F200F22EEE2490E08E299F29892B71F44E
:107610008091E8008B7F8093E80004C08EB38823BC
:1076200009F40AC18091E80082FFF8CF6091F1006F
:107630008091690190916A0169D48091690190916A
:107640006A01019690936A0180936901015010408C
:107650000115110591F680E16FDD8091E8008B7FC7
:10766000DFC08091E800877F8093E80004C08EB37C
:10767000882309F4E1C08091E80080FFF8CF809171
:107680000001893091F08A3069F480917301813072
:1076900049F48091690190916A018093F10090937F
:1076A000F100BBC080917A01B6C0C0906B01D09050
:1076B0006C012091690130916A010894C11CD11CB0
:1076C0007601E21AF30A0894C108D1088091730187
:1076D0008823C1F5870116950795C901A0916D0111
:1076E000B0E0AC01BD0126C02091F3008091F20012
:1076F000322F20E090E0822B932B809771F48091C1
:10770000E8008E7F8093E80004C08EB3882309F4DC
:1077100093C08091E80080FFF8CFFA0185919491A1
:107720008093F1009093F100015010404E5F5F4F45
:107730006F4F7F4F01151105B9F6D0926A01C092C3
:10774000690130C0823071F52AC02091F300809128
:10775000F200D22ECC2490E08C299D29809771F4E0
:107760008091E8008E7F8093E80004C08EB3882368
:1077700009F462C08091E80080FFF8CF00916901B0
:1077800010916A01C801BAD38093F1000F5F1F4FB7
:1077900010936A01009369010894E108F108E1146B
:1077A000F10499F682E08093000137C08091E800EF
:1077B000877F8093E80003C08EB38823E9F180912E
:1077C000E80080FFF9CF80916E018093F100109264
:1077D000F1001092F1001092F1008091000180936D
:1077E000F1001092F10019C08091E800877F80932A
:1077F000E80010926E011FC08091E800877F80939F
:10780000E80003C08EB38823B9F08091E80080FFC0
:10781000F9CF809100018093F1008091E8008E7F84
:107820008093E80008C08091E800877F8093E8009B
:1078300082E08093000156D126960FB6F894DEBF01
:107840000FBECDBFCF91DF911F910F91FF90EF90B1
:10785000DF90CF90BF90AF909F908F907F906F9070
:107860005F904F903F902F9008951F9384B7877F2C
:1078700084BF88E10FB6F894809360001092600096
:107880000FBE80E090E020E80FB6F89420936100EE
:10789000809361000FBE11E015BF82E085BF98D1D3
:1078A000569A5E9810936F0083E0809381005E9AF1
:1078B000789401C01AD3809101018823D9F780916F
:1078C00068018823B9F72DD156985E9810926F0001
:1078D0001092810081E085BF15BEE0917001F091AA
:1078E00071010995FA01923039F0933051F09130DD
:1078F000E9F489E091E017C08BE191E02BE130E001
:1079000019C0882329F486E391E024E030E012C016
:10791000813029F48AE391E028E130E00BC0823025
:1079200029F484E591E022E130E004C080E090E0B9
:1079300020E030E091838083C90108959B01AC0170
:1079400007B600FCFDCFF999FECF83E0F9018093E3
:107950005700E89507B600FCFDCF81E18093570002
:10796000E89508959B01AC0107B600FCFDCFF9999D
:10797000FECF85E0F90180935700E89507B600FC3B
:10798000FDCF81E180935700E89508950F931F93F1
:107990008B019C0107B600FCFDCFF999FECF81E079
:1079A000F8010A0180935700E89511241F910F9167
:1079B000089521E2FC01209357002491822F08951D
:1079C00029E0FC01209357002491822F0895E1E0E3
:1079D000F0E089E08093570084910895982F07B6CE
:1079E00000FCFDCFF999FECF909589E0E1E0F0E051
:1079F000092E80935700E89508959C0140918301DA
:107A0000509184014617570718F4F90190E044C0DB
:107A10006115710511F0AB01F8CF8091E8008E7F00
:107A20008093E80040E050E0F0CF8EB3882309F463
:107A300044C0853009F443C08091E80083FF02C050
:107A400081E008958091E80082FD31C08091E800D6
:107A500080FF22C08091F3009091F200782F60E0C7
:107A6000292F30E0262B372B07C081918093F1001E
:107A7000415050402F5F3F4F4115510519F02032C2
:107A8000310598F390E02032310509F491E08091BE
:107A9000E8008E7F8093E8004115510531F6992367
:107AA00021F605C08EB3882341F0853041F08091E6
:107AB000E80082FFF7CF80E0089582E0089583E038
:107AC00008958091EB0081608093EB001092ED00AF
:107AD0006093EC004093ED008091EE00881F8827B2
:107AE000881F089580917D0188238CF403C08EB394
:107AF0008823B1F08091E80082FFF9CF8091E800FF
:107B00008B7F8093E80008958EB3882349F080919D
:107B1000E80080FFF9CF8091E8008E7F8093E80035
:107B2000089566D06DD0E0EEF0E0808181608083C2
:107B3000A8EDB0E08C918F778C9319BCE7EDF0E065
:107B400080818E7F80838C918F7E8C9310927C01BC
:107B50000895EF92FF920F931F934AD051D008EDF2
:107B600010E0F80180818F77808380818068808336
:107B700080818F7D808319BC1EBA10927B0180EEBC
:107B8000E82EF12CF70180818B7F8083F8018081C2
:107B90008160808380E060E042E293DFE1EEF0E02C
:107BA00080818E7F8083E2EEF0E08081816080833F
:107BB000808188608083F70180818E7F8083F801D7
:107BC0008081806180831F910F91FF90EF900895D5
:107BD000E8EDF0E080818F7E8083E7EDF0E080814A
:107BE0008160808384E082BF81E080937C01B1CF9B
:107BF000E8EDF0E080818E7F80831092E2000895AE
:107C00001092DA001092E10008951F920F920FB6C1
:107C10000F9211242F933F934F935F936F937F9312
:107C20008F939F93AF93BF93EF93FF938091DA006D
:107C300080FF1BC08091D80080FF17C08091DA00C0
:107C40008E7F8093DA008091D90080FF0BC080E1A5
:107C500089BD82E189BD09B400FEFDCF81E08EBB04
:107C600043D103C019BC1EBA3FD18091E10080FF0F
:107C700017C08091E20080FF13C08091E2008E7FE8
:107C80008093E2008091E20080618093E200809125
:107C9000D80080628093D80019BC85E08EBB24D1C7
:107CA0008091E10084FF2EC08091E20084FF2AC011
:107CB00080E189BD82E189BD09B400FEFDCF8091DC
:107CC000D8008F7D8093D8008091E1008F7E8093D3
:107CD000E1008091E2008F7E8093E2008091E200DB
:107CE00081608093E20080917B01882311F084E021
:107CF00007C08091E30087FD02C081E001C083E0FE
:107D00008EBBF2D08091E10083FF21C08091E20020
:107D100083FF1DC08091E100877F8093E10082E0B6
:107D20008EBB10927B018091E1008E7F8093E100F9
:107D30008091E2008E7F8093E2008091E20080617A
:107D40008093E20080E060E042E2BBDECDD0FF91B4
:107D5000EF91BF91AF919F918F917F916F915F91C3
:107D60004F913F912F910F900FBE0F901F9018953C
:107D70001F93DF93CF9300D0CDB7DEB7EDE7F1E0EF
:107D80008091F100819381E0E538F807C9F705DBC0
:107D90008091E80083FF94C090917D0180917E01E5
:107DA000863009F440C0873030F4882359F085309C
:107DB00009F086C016C0883009F455C0893009F032
:107DC0007FC063C0903819F0923809F079C0809173
:107DD000E800877F8093E8001092F1001092F10094
:107DE0004DC0992309F06CC010917F011F778091DD
:107DF000E3008078812B8093E3008091E800877F07
:107E00008093E8006FDE8091E80080FFFCCF8091D6
:107E1000E30080688093E300112311F482E001C045
:107E200083E08EBB4DC09058923008F049C08091DD
:107E30007F019091800160918101AE014F5F5F4FA2
:107E400051DDBC01009709F43BC08091E800877FB9
:107E50008093E80089819A81D0DD8091E8008B7F52
:107E60008093E8002DC0903859F58091E800877F15
:107E70008093E80080917B018093F1008091E8007D
:107E80008E7F8093E8002EDE1BC09923C9F4909169
:107E90007F019230A8F48091E800877F8093E8000A
:107EA00090937B011FDE80917B01882331F48091C8
:107EB000E30087FD02C081E001C084E08EBB14D0E6
:107EC0008091E80083FF0AC08091E800877F80935B
:107ED000E8008091EB0080628093EB000F900F90A0
:107EE000CF91DF911F91089508958EB3882329F0D3
:107EF0008091E80083FF01C03BCF0895F999FECF40
:107F000092BD81BDF89A992780B50895262FF999D9
:107F1000FECF1FBA92BD81BD20BD0FB6F894FA9A6C
:0C7F2000F99A0FBE01960895F894FFCF67
:107F2C000201581E958720DCFB1201100100000095
:107F3C0020EB03F42F00000102000109021B0001D9
:107F4C00010080320904000000FE01020009210337
:107F5C000000000C10010403090418034400650020
:107F6C0061006E002000430061006D00650072002E
:107F7C006100000012034C00550046004100200037
:087F8C0044004600550000000E
:107FA000CDCCE0CCF3CC05CD0BCD11CD17CD0895C4
:087FB000089508950895089555
:107FE000DFCFDFCFDFCFDFCFDFCFDFCFDFCFDFCF21
:087FF000DFCFDFCFDFCFDFCFD1
:087FF8000070000010DFFBDC4B
:040000030000700089
:00000001FF
